:020000040800F2
:10000000682300206544000895060008970600084C
:100010009B0600089F060008A306000800000000D9
:10002000000000000000000000000000A70600081B
:10003000A906000800000000AB060008AD06000895
:100040007F4400087F4400087F440008993300087B
:100050007F4400087F440008953F00087F44000863
:100060007F4400087F4400087F4400087F44000864
:100070007F4400087F4400087F4400087F44000854
:100080007F4400087F4400087F4400087F44000844
:100090007F4400087F4400087F4400087F44000834
:1000A0007F4400087F4400087F4400087F44000824
:1000B0003924000807260008E52800087F440008C6
:1000C0007F4400087F4400087F4400087F44000804
:1000D0007F440008F5430008BB420008DB2100080C
:1000E0007F4400087F4400087F4400087F440008E4
:1000F0007F4400087F4400087F4400087F440008D4
:100100007F4400087F4400087F4400087F440008C3
:100110006B3600087F4400087F440008DB27000896
:100120007F4400087F4400087F4400087F440008A3
:1001300000F002F800F068F80AA090E8000C824491
:100140008344AAF10107DA4501D100F05DF8AFF26E
:10015000090EBAE80F0013F0010F18BFFB1A43F0A5
:100160000103184788890000A88900000A444FF05D
:10017000000C10F8013B13F0070408BF10F8014B06
:100180001D1108BF10F8015B641E05D010F8016B4B
:10019000641E01F8016BF9D113F0080F1EBF10F8AF
:1001A000014BAD1C0C1B09D16D1E58BF01F801CBD2
:1001B000FAD505E014F8016B01F8016B6D1EF9D555
:1001C0009142D6D37047000000230024002500266A
:1001D000103A28BF78C1FBD8520728BF30C148BFAA
:1001E0000B607047642906F08583002070471FB5B7
:1001F00006F066FC04000020002106F0F1FC401C23
:1002000060601FBD10B510BD06F07EFC1146FFF703
:10021000EEFF00F009F806F09CFC03B4FFF7F2FFD4
:1002200003BC03F071FF00001CB5002500F0AFFA1D
:1002300003F0F0FE4FF4A06004F034F900F03FFB4F
:1002400000F026FB00F0DAFF03F0AEFE1823EBA26D
:100250000021084600F0EDFC00F074FB4FF47A70CA
:1002600003F015FF4FF4165003F05DFF4FF4E1303B
:1002700003F0B9FF01F05AFF03F0A4F901F0D2FF37
:1002800001F0F8FF41F61F4142F20F7002F0BAFA96
:10029000DD4801F019FF02F075FB02F0A7FBDB4817
:1002A00002F083FCDA488078D9494978D84ECDE904
:1002B00000103378F279B179B08803F008F8D5A04E
:1002C00001F00DFF642003F0E2FE0721D54801F0A4
:1002D0001FFF02F0F1FCD449087002F053FB0FE05D
:1002E000CCA001F0FCFE642003F0D1FE0721CD4834
:1002F00001F00EFF02F0E0FCCB49087002F042FB77
:10030000C94800780028EBD0642003F0C0FEC7483D
:10031000007804F018F80020C3490870C448C549A3
:1003200008600522C449C348006801F042F8C1488A
:100330000068801DBF490860C048C14908600522A7
:10034000C049BF48006801F034F8BD480068801D0E
:10035000BB49086001F05EFDC5B20A2003F097FEBC
:10036000284603F0F0FFFF2446E103F0EFFD50B90B
:10037000AE2003F0E8FF0A23A0A20021084600F007
:1003800058FC00F0DFFA012D63D101F027FE0028B0
:100390005FD00020AC49087040E00020AB490870F5
:1003A00009E00021AA48A94A12788154A748007898
:1003B000401CA6490870A54800780428F1DBA24932
:1003C0000978A44A1C2303FB0121481C0422A049EC
:1003D00000F0DEFF9E4801F0ADFDC1B29E489A4A92
:1003E000127881540A2003F052FE9B49964A1278F3
:1003F000885C03F0A8FF0F2003F049FE964892495D
:100400000978405C012804D1A72003F09CFF012457
:100410000AE08D480078401C8B4908708A480078B3
:10042000824909788842B8DB00BF874800787F4955
:10043000097888420DD10C2388A22421002000F0E5
:10044000F8FB00F07FFA40F2DC5003F020FE00F0F1
:10045000B8FA03F08DF9012816D1BC2003F073FF20
:1004600003F05FFC012801D102240DE003F059FCE8
:1004700050B91821002000F0C5FC00F063FA0120FB
:1004800003F02CFE00F09DFA002001F00AFF7849ED
:1004900008707848007848BB08460078FF2825D0C7
:1004A0000846007803F04FFF7148017871480278E0
:1004B0000078401C6F4B18706F488154FF206C49C6
:1004C00008706D49087803F03EFF6A4800780128FB
:1004D0000CD1694800780E2802D00F2804D101E021
:1004E000032402E0042400E000BF00BF012C15D16A
:1004F000FF24A02003F027FF0C2360A2242100206A
:1005000000F097FB00F01EFA40F2DC5003F0BFFD54
:1005100000F057FAAA2003F016FF6DE0022C0CD170
:10052000FF241821002000F04FFC00F00BFA0120FE
:1005300003F0D4FD00F045FA5EE0032C0BD1FF245C
:1005400000204C49087001F01EF8002001F0A9FEBF
:100550004749087050E0042C4ED148E0322003F0A7
:1005600096FD43480278434801780078401C414B8F
:10057000187041484254322003F089FD3E494878C2
:1005800003F0E1FE322003F082FD3A4800780228B1
:100590002CD1394800780F2828D1374840780128D5
:1005A00004D0022805D0032809D105E001F0B9F8EC
:1005B00006E001F092FA03E001F08FFA00E000BFDC
:1005C00000BF0020324908700CE0FF202A49304A61
:1005D000127888540020274908702D480078401C64
:1005E0002B4908702A4800780228EEDB03E02048F7
:1005F0000078FF28B2D100BFB7E60000536D6172EA
:1006000074204C6F636B0000E80000202100002084
:10061000DA18002041542B43495053454E443D378E
:100620000D0A0000000000202E0000208A0000209B
:1006300000E80708640000200700002000F0070819
:10064000680000200C0000203D0000203C0000203D
:1006500033000020000007081A000020556E6C6F60
:10066000636B20756E7375636365737366756C0079
:10067000800000202A00002060000020556E6C6F72
:10068000636B207375636365737366756C6C790057
:1006900032000020704700BFFEE700BFFEE700BF4A
:1006A000FEE700BFFEE770477047704770470000E5
:1006B0000CB50020019000906C48006840F4803038
:1006C0006A49086000BF6948006800F40030009083
:1006D0000198401C0190009818B90198B0F5A06FDE
:1006E000F1D16248006800F4003010B101200090A0
:1006F00001E0002000900098012843D15C48006888
:1007000040F010005A4908600846006820F00300D5
:1007100008600846006840F00200086053484068DE
:10072000524948600846406848600846406840F4BE
:10073000806048600846406820F47C1048600846A5
:10074000406840F4E81048600846006840F0807057
:10075000086000BF4548006800F000700028F9D02C
:100760004248406820F0030040494860084640681D
:1007700040F00200486000BF3C48406800F00C00B8
:100780000828F9D10CBD10B5FFF792FF10BD10B5C8
:100790003648006840F00100344908600846406867
:1007A00034490840314948600846006832490840E9
:1007B0002E4908600846006820F48020086008463A
:1007C000406820F4FE0048604FF41F008860FFF787
:1007D000DAFF4FF000602949086010BD10B5002114
:1007E00000200022214B5B6803F00C0121B1042999
:1007F00006D0082928D107E0214B224C236027E0AE
:100800001F4B204C236023E0184B5B6803F47010EF
:10081000164B5B6803F48032022303EB904022B94D
:10082000194B4343174C23600DE0104B5B6803F4F6
:10083000003323B1144B4343124C236003E0104BAD
:100840004343104C236003E00D4B0E4C236000BF6C
:1008500000BF064B5B68C3F303130C4CE15C094B10
:100860001B68CB40074C236010BD00000010024005
:10087000002002400000FFF8FFFFF6FE08ED00E058
:1008800000127A004000002000093D0044000020D2
:1008900008B50121402004F08FF90420ADF80000D4
:1008A00010208DF8030003208DF8020069461848D7
:1008B00003F0C6FE0421164803F06FFF08BD08B51B
:1008C0000121402004F078F94FF40050ADF8000009
:1008D00010208DF8030003208DF8020069460C48B3
:1008E00003F0AEFE4FF40051094803F056FF4FF4F9
:1008F0008040ADF8000010208DF8030069460448E0
:1009000003F09EFE4FF48041014803F046FF08BD0E
:100910000018014070B504460D462146FC4803F01E
:1009200045FFFC4805600020FB49C1F89801FB49E0
:10093000086001200860F7490C310860F649C1F8E9
:100940008C0170BD70B500241CE004F1B001C8B288
:100950000021FFF7DFFF00210846FFF7DBFF002142
:100960001020FFF7D7FF002508E0ED4901EBC50196
:10097000085D0121FFF7CEFF681CC5B2802DF4DBB6
:10098000601CC4B2082CE0DB70BD10B500218D20C6
:10099000FFF7C0FF00211420FFF7BCFF0021AF20AC
:1009A000FFF7B8FF10BD10B500218D20FFF7B2FF93
:1009B00000211020FFF7AEFF0021AE20FFF7AAFFB5
:1009C00010BD70B500240CE0002506E00020D449DD
:1009D00001EBC5010855681CC5B2802DF6DB601C13
:1009E000C4B2082CF0DBFFF7ADFF70BDF0B51446C4
:1009F00000267F2801DC3F2900DDF0BD0B46CF1724
:100A000001EB5777FF10C7F10707FAB2CF1701EBD9
:100A10005777FF10A1EBC707FDB2C5F10707012308
:100A2000BB40DEB24CB1BE4B03EBC0039B5C334317
:100A3000BB4F07EBC007BB5408E0B94B03EBC00347
:100A40009B5CB343B64F07EBC007BB5400BFD4E772
:100A50002DE9F04706460F4690469946DDF820A05E
:100A600034460CE03D4606E0524629462046FFF754
:100A7000BDFF681CC5B24D45F6DD601CC4B24445DF
:100A8000F0DDFFF75FFFBDE8F0872DE9F84F804606
:100A90000F4616461C46BA462046E31704EB53732E
:100AA000DB1021464FEAE47C04EB5C7C4FEAEC0C63
:100AB000A4EBCC0CBCF1000F02D04FF0010C01E014
:100AC0004FF0000C6344224604EBD27C4FEA6C0CDE
:100AD00003FB0CF303F0FF0BA6F12000C6B20025C8
:100AE0004EE00C2C07D106EB46008E4901EB80004E
:100AF000405D009013E0102C05D18B4800EB0610F0
:100B0000405D00900BE0182C07D106EBC60087492A
:100B100001EB8000405D009001E0BDE8F88F4FF0F0
:100B2000000927E0009800F0800028B139464046CF
:100B30000A9AFFF75BFF09E00A9808B9012000E074
:100B40000020024639464046FFF750FF0098400615
:100B5000000E0090781CC7B2A7EB0A00A04205D196
:100B6000574608F1010000F0FF0806E009F1010016
:100B700000F0FF09B9F1080FD4DB00BF681CC5B253
:100B80005D45AEDB00BFC8E710B50246012000E0BE
:100B900050430B00A1F10104E1B2F9D110BD2DE9E0
:100BA000FF4F81B0074691461E460E9D4FF0000A4A
:100BB000002439E0301B401EC1B20A20FFF7E4FFD9
:100BC000B9FBF0F00A21B0FBF1F201FB1208BAF117
:100BD000000F16D1701EA04213DDB8F1000F0ED128
:100BE0000120AB4605EBDB71491001FB047100905D
:100BF000C8B22B4620220299FFF747FF12E04FF0C0
:100C0000010A0120AB4605EBDB71491001FB0471C1
:100C10000090C8B208F13001CAB22B460299FFF722
:100C200034FF00BF601CC4B2B442C3DB05B0BDE8F2
:100C3000F08FF8B506460F4615461C4621E004EB3A
:100C4000D4714910C1F18001B14202DA002638198D
:100C5000C7B2C4F14000B84204DA00200646074695
:100C6000FFF7AFFE012000902A7823463946304630
:100C7000FFF70BFF204604EBD07106EB6101CEB20B
:100C80006D1C28787E2802DC28782028D7DAF8BD69
:100C90002DE9F84F05460C461746A246482000901D
:100CA00007EBC700224901EBC00B00262AE01BF826
:100CB00006804FF000091FE008F0800028B1E1B283
:100CC000E8B20122FFF792FE04E0E1B2E8B20022AE
:100CD000FFF78CFE4FEA48604FEA1068601C84B250
:100CE000A4EB0A00182803D15446681C85B206E01C
:100CF00009F1010000F0FF09B9F1080FDCDB00BFCA
:100D0000701CC6B200988642D1DBBDE8F88F0000A7
:100D1000001001408C81224200802242B80124420E
:100D2000680100200C6C00088070000870760008D4
:100D3000CC83000830B504460D46002229462046E3
:100D4000FFF7A6FF04F1180188B201222946FFF738
:100D50009FFF04F1300188B202222946FFF798FF75
:100D600004F1480188B203222946FFF791FF04F1FC
:100D7000600188B204222946FFF78AFF30BD30B5F2
:100D800004460D46002229462046FFF781FF04F164
:100D9000180188B205222946FFF77AFF04F13001D5
:100DA00088B206222946FFF773FF04F1480188B292
:100DB00003222946FFF76CFF04F1600188B2042288
:100DC0002946FFF765FF30BD30B504460D460522C4
:100DD00029462046FFF75CFF04F1180188B206227D
:100DE0002946FFF755FF04F1300188B20722294652
:100DF000FFF74EFF04F1480188B208222946FFF7A9
:100E000047FF30BD30B504460D4605222946204631
:100E1000FFF73EFF04F1180188B206222946FFF7CA
:100E200037FF04F1300188B209222946FFF730FF6D
:100E300004F1480188B20A222946FFF729FF30BD94
:100E400030B504460D46002229462046FFF720FF14
:100E500004F1180188B20B222946FFF719FF04F1AB
:100E6000300188B20C222946FFF712FF04F1480135
:100E700088B203222946FFF70BFF04F1600188B214
:100E800004222946FFF704FF30BD30B504460D4665
:100E9000002229462046FFF7FBFE04F1180188B224
:100EA0000D222946FFF7F4FE04F1300188B20E222C
:100EB0002946FFF7EDFE04F1480188B203222946D6
:100EC000FFF7E6FE04F1600188B204222946FFF72D
:100ED000DFFE30BD30B504460D460B2229462046C4
:100EE000FFF7D6FE04F1180188B20C222946FFF75D
:100EF000CFFE04F1300188B209222946FFF7C8FE6F
:100F000004F1480188B20A222946FFF7C1FE30BD2C
:100F100030B504460D460B2229462046FFF7B8FEA1
:100F200004F1180188B20C222946FFF7B1FE04F142
:100F3000300188B207222946FFF7AAFE04F14801D2
:100F400088B208222946FFF7A3FE30BD30B504461B
:100F50000D460D2229462046FFF79AFE04F118019E
:100F600088B20E222946FFF793FE04F1300188B2C1
:100F700007222946FFF78CFE04F1480188B20822B7
:100F80002946FFF785FE30BD30B504460D460022E8
:100F900029462046FFF77CFE04F1180188B20F2293
:100FA0002946FFF775FE04F1300188B20322294675
:100FB000FFF76EFE04F1480188B204222946FFF7CC
:100FC00067FE30BD30B504460D4603222946204653
:100FD000FFF75EFE04F1180188B204222946FFF7EC
:100FE00057FE04F1300188B210222946FFF750FE67
:100FF00004F1480188B211222946FFF749FE30BDAD
:1010000030B504460D46002229462046FFF740FE33
:1010100004F1180188B212222946FFF739FE04F1C3
:10102000300188B20F222946FFF732FE04F1480151
:1010300088B203222946FFF72BFE04F1600188B233
:1010400004222946FFF724FE30BD30B504460D4684
:10105000062229462046FFF71BFE04F1180188B23C
:1010600005222946FFF714FE04F1300188B203225D
:101070002946FFF70DFE04F1480188B204222946F3
:10108000FFF706FE30BD30B504460D460622294660
:101090002046FFF7FDFD04F1180188B2052229461C
:1010A000FFF7F6FD04F1300188B207222946FFF769
:1010B000EFFD04F1480188B208222946FFF7E8FD58
:1010C00030BD30B504460D46062229462046FFF7BE
:1010D000DFFD04F1180188B205222946FFF7D8FD8B
:1010E00004F1300188B209222946FFF7D1FD04F14D
:1010F000480188B20A222946FFF7CAFD30BD30B543
:1011000004460D46132229462046FFF7C1FD04F18F
:10111000180188B207222946FFF7BAFD04F1300111
:1011200088B214222946FFF7B3FD04F1480188B2C2
:1011300015222946FFF7ACFD30BD30B504460D46FB
:10114000142229462046FFF7A3FD04F1180188B2B6
:1011500015222946FFF79CFD04F1300188B20722D1
:101160002946FFF795FD04F1480188B20822294677
:10117000FFF78EFD30BD30B504460D460D222946E1
:101180002046FFF785FD04F1180188B20E2229469A
:10119000FFF77EFD04F1300188B209222946FFF7EE
:1011A00077FD04F1480188B20A222946FFF770FD55
:1011B00030BD30B504460D46032229462046FFF7D0
:1011C00067FD04F1180188B204222946FFF760FD8B
:1011D00004F1300188B216222946FFF759FD04F1C7
:1011E000480188B217222946FFF752FD04F1600139
:1011F00088B218222946FFF74BFD30BD08B5012102
:101200004FF4987003F0D8FC4820ADF8000010208F
:101210008DF8030003208DF8020069464A4803F068
:101220000FFA4821484803F0B8FAFF20ADF8000053
:101230006946464803F004FAFF21444803F0ADFA3A
:101240004FF46040ADF800006946414803F0F8F9FA
:101250004FF460413E4803F0A0FA01203D49086088
:101260003D49C1F88C0100203C490860642002F02F
:101270000EFF01203A49C1F8BC010021AE20FFF762
:1012800049FB0021D520FFF745FB00215020FFF747
:1012900041FB0021A820FFF73DFB00213F20FFF785
:1012A00039FB0021D320FFF735FB00210846FFF76B
:1012B00031FB00214020FFF72DFB00218D20FFF79F
:1012C00029FB00211420FFF725FB00212020FFF738
:1012D00021FB00210220FFF71DFB0021A120FFF7C9
:1012E00019FB0021C020FFF715FB0021DA20FFF7D2
:1012F00011FB00211220FFF70DFB00218120FFF7D9
:1013000009FB0021EF20FFF705FB0021D920FFF7A3
:1013100001FB0021F120FFF7FDFA0021DB20FFF7A0
:10132000F9FA00213020FFF7F5FA0021A420FFF799
:10133000F1FA0021A620FFF7EDFA0021AF20FFF718
:10134000E9FAFFF73EFB08BD001401400010014020
:10135000002001409881224200802242BC012442A8
:10136000000024420146088870472DE9F0410546F7
:101370000E461746002407E036F81410284603F0FE
:10138000EAFFAD1C601C84B2BC42F5DBBDE8F08115
:1013900030B503460C461546002207E01846FFF715
:1013A000E1FF24F812009B1C501C82B2AA42F5DB1C
:1013B00030BD2DE9F05F80468A461746B8F1006FD0
:1013C00002D33748804501D3BDE8F09F03F07BFE90
:1013D000A8F1006B4FEADB25CBF34909C9F580641E
:1013E000A74200DC3C464DE04FF0006101EBC52018
:1013F0004A142C49FFF7CCFF00260BE009EB06004E
:10140000284931F810004FF6FF71884200D003E000
:10141000701C86B2A642F1DB00BFA6421BDA4FF079
:10142000006101EBC52003F093FE002608E03AF8C6
:10143000160006EB09011B4A22F81100701C86B247
:10144000A642F4DB4FF0006101EBC5204A141549B8
:10145000FFF78BFF04E0224651464046FFF785FF29
:10146000A74200D10FE06D1C4FF000090AEB440ABF
:10147000A044381B87B2B7F5806F02DD4FF480645B
:1014800000E03C46B0E700BF03F029FE00BF9BE749
:1014900013B50446012201A92046FFF78AFF1CBDAF
:1014A000000008086805002070B502460B460024BD
:1014B0000025002100BF19E0002125460BE0FA4875
:1014C000405DFA4E765CB04204D1681CC5B2481C3F
:1014D000C1B200E003E0994201DA9542EFDB00BFC0
:1014E000994201D1012070BD601CC4B29442E3DB7B
:1014F0000020F8E730B50B24062529462046FFF7E3
:10150000D3FF30BD7CB50024002534E0082002F074
:101510001AFF00F063FD00282DD0E5491C2202FBD4
:101520000411481C04226946FFF732FFC82002F06C
:10153000AEFD684600F0FEFCC6B2002504E00020C7
:101540000DF80500681CC5B2042DF8DB012E10D182
:101550000120D84908700C23D7A224210020FFF7CE
:1015600068FBFFF7EFF9022002F0B8FDD7480470DE
:1015700005E0601CC4B2D64800788442C6DB00BFD8
:10158000FFF71FFA7CBD2DE9F84F00240025A24685
:101590000C23D0A218210020FFF74BFBFFF7D2F954
:1015A0002BE0002000F07DFE0546322002F06FFDAA
:1015B000FF2D22D00A2C1BDA0F2D19D0022002F0A9
:1015C000C2FEC8490D55E8B202F0BDFE012004EB91
:1015D00044015A2202EB41010090C8B20C232A2296
:1015E0001821FFF752FAFFF7ADF9601CC4B204E00E
:1015F0000F2D02D1BB490D5500E0D2E700BF601CA2
:10160000C1B2B84802F0BBFE002605E0B548805DD7
:10161000A5498855701CC6B2601C8642F6DB0027BF
:1016200061E0B149C95DC1EBC101A14A0E3202EBD3
:1016300081000622AD49FFF7ABFE0B2C51DAA94819
:10164000005D0F284DD14FF0000809E0A74810F8C1
:101650000800964901F8080008F1010000F0FF08B1
:10166000B8F1060FF2DBFFF745FF08B14FF0010AB2
:10167000BAF1010F35D14FF0000A042002F063FEE9
:101680000C239BA224210020FFF7D3FAFFF75AF97D
:1016900001209C49087000209B490860032002F04B
:1016A0001DFD01F0F9FE0922984999480068FFF7ED
:1016B00080FED14607E00020944901F8090009F1B5
:1016C000010000F0FF09B9F1090FF4DB9048006850
:1016D0000A308F4908608F480078401C8D49087097
:1016E00005E0781CC7B27A480078874299DB00BFD2
:1016F000BAF1000F11D17648007887420DD105204C
:1017000002F021FE0C2384A224210020FFF791FA8D
:10171000FFF718F9032002F0E1FCFFF752F9BDE8EA
:10172000F88F2DE9F8430025002418237FA200211B
:101730000846FFF77EFAFFF705F947E17E48407853
:101740000128FAD10C237DA218210020FFF771FA9D
:10175000FFF7F8F8C82002F09AFCFFF7D3FE4FF429
:10176000FA7002F094FCFFF72CF918236FA2002105
:101770000846FFF75EFAFFF7E5F84E4800780128C3
:10178000DBD10C2371A218210020FFF752FAFFF7DA
:10179000D9F812E1002000F084FD04464FF4FA70FD
:1017A00002F075FCFF2CF4D0002C1DDB092C1BDC97
:1017B000062D19DA022002F0C6FD012005EB4501D5
:1017C000542202EB41010090C8B20C232A221821B6
:1017D000FFF75BF9FFF7B6F842494C55E0B202F06B
:1017E000B2FD681CC5B2E8E0062D5AD10F2CFCD121
:1017F000002030490870032002F0A5FD3349097824
:10180000C1EBC1012A4A02EB810101F10E0006225F
:101810003449FFF7CEFD2D490978C1EBC101244AB7
:1018200002EB810101F10E0006223049FFF7B0FD05
:101830002648007802F087FD06212A4802F09FFD25
:1018400006212A4802F09BFD002705E02548C05DDF
:101850001549C855781CC7B2062FF7DB002605E0EE
:101860002248805D11498855701CC6B2062EF7DBF0
:10187000FFF740FEB0B1042002F065FD0C2337A253
:1018800024210020FFF7D5F9FFF75CF801F0AAFD4D
:1018900009221E4935480068FFF78BFD4FF000080C
:1018A0006EE07EE07CE00000400100201B00002094
:1018B0000000070862000020537769706520737587
:1018C000636365737366756C6C7900006300002058
:1018D0008A000020696E7075742070617373776F71
:1018E00072643A00680D00208B0000205400002034
:1018F00050617373776F72642069732054727565D9
:10190000000000006F00002094812142730D002030
:10191000680000206D00002050617373776F72645F
:101920002069732057726F6E67000000536D6172FB
:1019300074204C6F636B000060000020506C656188
:1019400073652073776970653A000000496E7075A1
:1019500074204E6577205057443A00005057442079
:101960006368616E676564204F4B0000640000206F
:101970000020EC4901F8080008F1010000F0FF0820
:10198000B8F1090FF4DBE84800680A30E64908605E
:10199000E6480078401CE54908700120E4490870D9
:1019A0000CE0052002F0CFFC0C23E2A22421002051
:1019B000FFF73FF9FEF7C6FF00E0EBE600BF40F29D
:1019C000DC5002F064FBFEF7FCFF00E0B6E600BF6F
:1019D000BDE8F8832DE9FC414FF000080025002602
:1019E0001823AFF2B80200210846FFF722F90C23B2
:1019F000AFF2B80218210020FFF71BF9FEF7A2FF93
:101A000064E000F007FA00F0FF08B8F1010F5BD1C5
:101A1000CD491C2202FB0611481C04226946FFF72F
:101A2000B7FC062002F05AFB684600F083FAC7B202
:101A3000002504E000200DF80500681CC5B2042D47
:101A4000F8DB40F2DC5002F022FB40F2DC5002F006
:101A50001EFB40F2DC5002F01AFB012F32D10C23A6
:101A6000BAA224210020FFF7E4F8FEF76BFF012063
:101A7000BB4908700020BB490860052002F02EFB1E
:101A80000120B949C1F89401FEF79BFF01F0E6FC83
:101A90000922A449B5480068FFF78BFC002404E044
:101AA0000020A0490855601CC4B2092CF8DBAF48DF
:101AB00000680A30AD490860AD480078401CAC4968
:101AC000087007E0701CC6B2FEF77BFFA9480078DB
:101AD000864296DB00BFBDE8FC8170B5002500247E
:101AE00000261823AFF2BC1200210846FFF7A1F828
:101AF000FEF728FFE3E0A048407802284ED10C23EF
:101B0000AFF2C81218210020FFF793F8FEF71AFF72
:101B1000022002F0E3FAFFF7F5FC00BF97480078D7
:101B20000028FBD095480078012837D10020934940
:101B30000870FEF746FF0A2002F0A9FA0C2390A2D3
:101B400018210020FFF775F8FEF7FCFE022002F0D6
:101B5000C5FA01F00DFE01281AD1A72002F0F3FB0F
:101B60008B480078401C01F0D6FEC5B2012D04D18F
:101B70000025A82002F0E7FBA2E018210020FFF7D3
:101B8000A9F94FF47A7002F082FAFEF71AFF97E093
:101B90004FF4FA7002F07BFAFEF713FF76484078B4
:101BA0000328A7D10C23AFF26C2218210020FFF7E5
:101BB00040F8FEF7C7FE022002F090FAFFF7A2FC01
:101BC00000BF6E4800780028FBD06C4800780128E0
:101BD00060D100206949087000210846FFF7AAF883
:101BE000FEF7B0FE032002F079FA01F0C1FD0128F2
:101BF00060D1032002F072FA65480078401C02F0C0
:101C0000B7F8C6B2012E39D1614A1278521CD1B24E
:101C10005F4A1278521CD0B202F042F8C5B2012DD0
:101C200025D1002518210020FFF790F9FEF78AFE44
:101C300001F0F6FB09223B493B480068FFF7B9FB7E
:101C4000394800680A3038490860002404E0002060
:101C500034490855601CC4B2092CF8DB33480078BD
:101C6000401C3249087001203149087028E01821D1
:101C70000020FFF780FAFEF765FE1BE01821002028
:101C8000FFF797FAFEF75EFE012002F027FAFEF753
:101C900098FE15E03948007801280BD00C233DA2AE
:101CA00018210020FEF7C5FFFEF74CFE40F2DC5085
:101CB00002F0EDF9032002F011FAFEF782FE1AE7B6
:101CC00000BF70BD10B51823AFF2A0320021084646
:101CD000FEF7AFFFFEF736FE0EE032A000F0FFF990
:101CE0004FF47A7002F0D3F902223049304800F004
:101CF0005DFE044600F046FE002CEED0012002F00E
:101D000022FB2CA000F0EBF940F2DC5002F0BFF90E
:101D100005212C4800F0FCF901212B4804F0C2F801
:101D200010BD0000730D0020640000206C00002036
:101D30006E00002050574420466F726D206973205A
:101D4000464C41534500000000000708556E6C6F7B
:101D5000636B207375636365737366756C6C790070
:101D60006F00002094812142008021426800002001
:101D70006D0000208A00002060000020620000202A
:101D8000596F75206E65656420666967657221000C
:101D900063000020596F75206E6565642073776954
:101DA0007065210041540D0A000000009B000020D6
:101DB0004110002041542B43495053454E443D357A
:101DC0000D0A0000110000200008004070B5054613
:101DD0000E4600240CE0295DAA4803F08DF800BFF0
:101DE0008021A84803F0F6F80028F9D0601CC4B29E
:101DF000B442F0DB70BD0146002000BF04E00022C9
:101E0000A14B1A54421C90B28842F8DB00229F4B2F
:101E10001A70704710B586B000244FF4FA70FFF7BF
:101E2000EAFF86E055208DF800008DF801000020C3
:101E30008DF802008DF803008DF804008DF8050080
:101E40008DF806008DF807008DF808008DF8090060
:101E50008DF80A008DF80B008DF80C008DF80D0040
:101E60008DF80E008DF80F00FF208DF81000032074
:101E70008DF81100FD208DF81200D4208DF813008C
:101E800014208DF8140001208DF8150017208DF80E
:101E9000160000208DF8170018216846FFF796FFFE
:101EA000B42002F0F4F878480078C8BB764840784F
:101EB000B0BB75488078FF2833D17348C07878BBB1
:101EC00071480079FF282CD16F48407940BB6E489B
:101ED000807928BB6C48C07910BB6B48007AFF281A
:101EE0001FD16948407A02281BD16748807AFE28B2
:101EF00017D16548C07AD52813D16348007B1528CF
:101F00000FD16148407B16280BD15F48807B38B9E0
:101F100001244FF4FA70FFF76EFF204606B010BDA3
:101F2000FFE74FF4FA70FFF766FF40F6B83002F0B3
:101F3000AEF877E73EB50446FF254FF4FA70FFF799
:101F40005AFF4AE000208DF800008DF80100FF20C4
:101F50008DF8020004208DF80300FC208DF80400A9
:101F6000D4208DF805004A208DF8060001208DF858
:101F7000070000208DF80800E1208DF809000020FE
:101F80008DF80A000B216846FFF720FFB42002F00D
:101F90007EF83D48C07C2178884215D13A48007DC2
:101FA0006178884210D13848407DA17888420BD1B1
:101FB0003548807DE178884206D101254FF4FA70DA
:101FC000FFF719FF28463EBD4FF4FA70FFF713FFE5
:101FD000C82002F05CF82846F5E7B3E73EB5FF24D9
:101FE0004FF4FA70FFF707FF4BE000208DF8000078
:101FF0008DF80100FF208DF8020004208DF8030009
:10200000FC208DF80400D4208DF805004A208DF8BE
:10201000060001208DF8070000208DF80800E1205F
:102020008DF8090000208DF80A000B216846FFF7A3
:10203000CDFE1E2002F02BF814480078192819D183
:1020400011480078B0B91048407898B90E488078A7
:10205000FF280FD10C48C07860B90B480079FF28E1
:1020600008D10948407928B901244FF4FA70FFF7E4
:10207000C2FE04E000244FF4FA70FFF7BCFEE0B2A9
:102080003EBDB2E700440040E719002024010020D3
:1020900010B5044600BF80215C4802F09BFF002879
:1020A000F9D02146594802F027FF10BD10B504466B
:1020B00000BF8021564802F08DFF0028F9D021464C
:1020C000534802F019FF10BD10B5044603E0207814
:1020D000FFF7ECFF641C20780028F8D110BD10B584
:1020E000044603E02078FFF7D3FF641C2078002823
:1020F000F8D110BD10B5044600BF8021434802F05E
:1021000069FF0028F9D02146404802F0F5FE10BDD5
:1021100070B504460D46002600BF04E02078FFF7A6
:10212000E9FF641C761CAE42F8D370BD00B587B0E1
:102130000121880402F04DFD0121082002F03CFD40
:10214000324802F09DFD4FF48060ADF8140003208A
:102150008DF8160018208DF8170005A92D4802F0FB
:102160006FFA4FF40060ADF8140004208DF81700EA
:1021700005A9284802F064FA0121274802F031FB42
:1021800027208DF8180000208DF8190001208DF807
:102190001A008DF81B0006A802F089F94FF4E1300F
:1021A00001900020ADF80800ADF80A00ADF80C0071
:1021B000ADF810000C20ADF80E0001A9134802F094
:1021C000A2FD012240F22551104802F034FE012107
:1021D0000E4802F024FE07B000BD10B540F22551B4
:1021E0000A4802F00DFF58B1084802F089FEC1B25A
:1021F0000A4802780078401C084B1870084881543F
:1022000040F22551014802F025FF10BD0048004072
:1022100000380140000C0140100014007E00002036
:102220004110002008B50121812002F0C5FC1020DA
:102230008DF80300F020ADF8000003208DF80200B7
:102240006946604802F0FCF948208DF803000F2031
:10225000ADF8000003208DF802006946594802F0ED
:10226000EFF90F21574802F098FAF021554802F093
:1022700096FA08BD08B50121042002F09DFC10204B
:102280008DF803004020ADF8000003208DF8020017
:1022900069464D4802F0D4F940214B4802F07FFADC
:1022A00008BD70B50446FF2514B1012047490870E8
:1022B00046480078002878D0424802F05DFA00F0E5
:1022C0000F000F2871D0052001F0E1FE00203F49EA
:1022D00008703C4802F050FA00F00F000F286ED052
:1022E000E021384802F059FA1021364802F057FA36
:1022F000344802F041FA00F00F0007280BD00B28F9
:1023000007D00D2803D00E2807D1012505E00425AC
:1023100003E0072501E00E2500BF00BFD0212948BA
:1023200002F03BFA2021274802F039FA254802F052
:1023300023FA00F00F0007280BD00B2807D00D2838
:1023400003D00E2807D1022505E0052503E0082566
:1023500001E0002500BF00BFB0211A4802F01DFABD
:102360004021184802F01BFA164802F005FA00F066
:102370000F0007280BD00B2807D00D2803D00E28FC
:1023800007D1032505E0062503E0092501E00F2517
:1023900000BF00BF0F210B4802F0FFF9F0210948F0
:1023A00002F0FDF9284670BDFFE7064802F0E4F9A7
:1023B00000F00F000F2802D1012004490870FF200F
:1023C000F1E70000001C01400008014081000020EE
:1023D0007FB505460C460121880704F03DF8012130
:1023E000084602F0F6FB0020ADF80A00A8B2ADF8EE
:1023F0000800ADF804400020ADF8060001A94FF038
:10240000804003F0F3F901221146900703F065FDC7
:102410001C208DF8000001208DF8010000208DF8AF
:10242000020001208DF80300684602F040F8012107
:10243000880703F037FD7FBD70B5002501218807AF
:1024400003F0F9FF002872D0FE48007801286FD110
:102450000020FC490870FC480078012869D10EE092
:10246000FAA0FFF73CFE4FF47A7001F010FE022252
:10247000F849F94800F09AFA064600F083FA002E6F
:10248000EED0012001F05FFFF448007800EB8000FF
:10249000062101EB4002F249F248FEF779FF0024E1
:1024A00011E0052C06D00A20B4FBF0F100FB11402E
:1024B000052800D106E0EA48025D28466D1CEA497D
:1024C0000A5400BF641CE548007800EB8000062138
:1024D00001EB4000A042E4D8E4A0FFF700FE4FF477
:1024E0007A7001F0D4FDFF20DF494855FF21DE4A14
:1024F000681C11544FF4C8711046FFF709FE002004
:10250000D1490870D748801DDD49086000F0CAFB3A
:10251000DC49087000F0D0FBDB49087000F09DFC3E
:10252000DA4908704FF47A7001F0B1FD12E038E03A
:1025300021E032E000F0B6FBD249087000F0BCFBAD
:10254000D149087000F089FCD04908704FF47A70C6
:1025500001F09DFDCB48007830B9CB48007818B920
:10256000CA4800780028E5D0092001F0ECFE0020E0
:10257000BA49087011E0C6480088022808D1002036
:10258000C3490880AF480078401CAE49087004E099
:10259000BF480088401CBE4908800121880703F01D
:1025A0005BFF70BD7FB505460C460121B94803F0BD
:1025B00053FF0121022002F00CFB0020ADF80A00BD
:1025C000A8B2ADF80800ADF804400020ADF8060050
:1025D00001A9B04803F00AF901221146AD4803F001
:1025E0007CFC1D208DF8000001208DF801008DF885
:1025F00002008DF80300684601F059FF0121A5484B
:1026000003F050FC7FBD70B500250121A14803F007
:1026100012FF002872D0A048007801286FD1002056
:102620009D4908709D480078012869D10EE087A077
:10263000FFF755FD4FF47A7001F029FD022285491C
:10264000854800F0B3F9064600F09CF9002EEED064
:10265000012001F078FE9248007800EB800006210E
:1026600001EB40028F499048FEF792FE002411E0F2
:10267000052C06D00A20B4FBF0F100FB1140052820
:1026800000D106E08748025D28466D1C87490A5440
:1026900000BF641C8248007800EB8000062101EB3B
:1026A0004000A042E4D871A0FFF719FD4FF47A7002
:1026B00001F0EDFCFF206C494855FF216A4A681C77
:1026C00011544FF4C8717948FFF722FD0020734977
:1026D00008707548801D7649086000F0E3FA694982
:1026E000087000F0E9FA6849087000F0B6FB674925
:1026F00008704FF47A7001F0CAFC12E03FE028E065
:1027000039E000F0CFFA5F49087000F0D5FA5E4971
:10271000087000F0A2FB5D4908704FF47A7001F078
:10272000B6FC5848007830B95748007818B957486F
:1027300000780028E5D000205249087052490870FE
:1027400052490870092001F0FEFD0020544908702C
:1027500011E058480088022808D100205549088017
:102760004D480078401C4C49087004E051480088EE
:10277000401C504908800121464803F06DFE70BDA1
:102780007FB505460C460121202002F022FAADF863
:102790000450ADF800400020ADF80600ADF802008E
:1027A0006946454803F022F801221146424803F0E9
:1027B00094FB0121404803F075FB37208DF80C0095
:1027C00001208DF80D0002208DF80E0001208DF8FB
:1027D0000F0003A801F06BFE7FBD10B50121364844
:1027E00003F029FE68B13548008840F400403349C1
:1027F00008800121304803F02FFE00212E4803F00D
:1028000051FB10BD7FB505460C4601212C4803F055
:1028100023FE0121042002F0DCF90020ADF80A00BB
:10282000A8B2ADF80800ADF804400020ADF80600ED
:1028300001A9234802F0DAFF01221146204803F0E3
:102840004CFB3FE0840000206E00002041540D0A44
:10285000000000009B000020411000206C000020C0
:102860009912002000E807084917002041542B4323
:10287000495053454E443D3430300D0A00000000AD
:10288000640000202D0000202E0000202F000020DA
:102890008800002000040040830000206F0000201A
:1028A0006D0000202914002000F00708B915002051
:1028B000680000208600002000140040280100204D
:1028C000000800401E208DF8000001208DF8010056
:1028D00002208DF8020001208DF80300684601F007
:1028E000E6FD7FBD10B501211E4803F0A4FD0028C0
:1028F00037D01D48007801282AD100201A490870D5
:10290000002421E01948005D1F281CD11749601CD4
:10291000085C3D2817D1A01C085C032813D10C23A8
:1029200013A224210020FEF784F9FEF70BF80520FE
:1029300001F0D4FBFEF745F800F024F80021094827
:1029400003F0B0FA03E0641CB4F5167FDAD304E0B8
:1029500005480078401C044908700121014803F033
:102960007BFD10BD000800408200002041100020C7
:10297000556E6C6F636B20737563636573736675F7
:102980006C6C790010B5002440F22551FE4802F02D
:1029900061FB0020FD49087000BF03E00020FC49F6
:1029A0000855641CB4F5167FF8D310BD70B5034606
:1029B0000C4615460021002200BF12E0585C267824
:1029C000B0420CD1002206E08818185CA65CB04228
:1029D00000D005E0521CAA42F6DB012070BD00BF0A
:1029E000491CB1F5167FE9DB0020F7E770B500243C
:1029F0004FF40051E74801F0D2FE002504E04FF407
:102A0000FA7001F044FB6D1C002DF8D04FF400511A
:102A1000E04801F0C2FE4FF48041DE4801F0BFFE05
:102A2000002504E04FF4FA7001F031FB6D1C002D1D
:102A3000F8D04FF48041D74801F0AFFE012001F0FB
:102A400082FCD5A0FFF74BFB4FF47A7001F01FFB1F
:102A50000222D349CE48FFF7A9FF0446FFF792FFB1
:102A60000EE0CDA0FFF73BFB4FF47A7001F00FFBB7
:102A70000222CB49C648FFF799FF0446FFF782FFC1
:102A8000002CEED0022001F05EFCFFF77BFF4FF43C
:102A90007A7001F0FCFA0024C2A0FFF720FB4FF48B
:102AA0007A7001F0F4FA0222BD49B948FFF77EFFBF
:102AB0000446FFF767FF0EE0FFF764FFB9A0FFF7DA
:102AC0000EFB4FF47A7001F0E2FA0222B449B048EA
:102AD000FFF76CFF0446002CEED0032001F033FC1E
:102AE000FFF750FF4FF47A7001F0D1FA0024B0A044
:102AF000FFF7F5FA4FF47A7001F0C9FA0222A849FB
:102B0000A348FFF753FF0446FFF73CFF0EE0FFF733
:102B100039FFA7A0FFF7E3FA4FF47A7001F0B7FA94
:102B200002229F499A48FFF741FF0446002CEED04D
:102B3000042001F008FCFFF725FF4FF47A7001F044
:102B4000A6FA00249E48FFF7CAFA4FF47A7001F003
:102B50009EFA0A229B498E48FFF728FF0446FFF79A
:102B600011FF0EE0FFF70EFF9548FFF7B8FA4FF49C
:102B70007A7001F08CFA0A2292498548FFF716FF15
:102B80000446002CEED0FFF7FDFE052001F0DBFB34
:102B900070BD30B50446002000BF03E01518655D28
:102BA0000D54401C9842F9DB30BD2DE9F04104463C
:102BB000002700250026FFF7E5FE83A0FFF78FFA28
:102BC0004FF47A7001F063FA05218348FFF7A0FA09
:102BD0004FF47A7001F05BFA00BF05E04FF47A70B1
:102BE00001F055FA781CC7B2052FF7DB002552E03B
:102BF0006748405D1F284DD16549681C085C3D2829
:102C000048D1A81C085C112844D105F10A00085CD1
:102C1000FF283FD105F10B00085CFF283AD10026C0
:102C200002E00020A055761C072EFADBE81CC2B299
:102C3000072321465648FFF7ACFF6078217800EB68
:102C4000012066498880A0788871E078C871207971
:102C5000087060794870A07988708988081201F03E
:102C600072FB5E498988C8B201F06DFB5B498879C7
:102C700001F069FB5949C87901F065FB57490878AB
:102C800001F061FB5549487801F05DFB53498878B4
:102C900001F059FB6D1CB5F5167FA9DBFFF772FE3D
:102CA000BDE8F08110B5002405224D493848FFF7F2
:102CB0007DFE0446204610BD10B500240020494981
:102CC000087000BFC3E03248005D1F285AD1304968
:102CD000601C085C3D28F9D1A01C085C0128F5D1D6
:102CE000E41CA7E03F480078401C3E490870E2B26F
:102CF00005233D492648FFF74CFF601DC2B208235B
:102D00003A492348FFF745FF2149095D491EC1EBB8
:102D1000C101374A02EB810005223349FEF749FB26
:102D20001B49095D491EC1EBC101314A02EB81011A
:102D3000881D08222D49FEF73CFB1549095D491EF7
:102D4000C1EBC1012A4A02EB810101F10E0006220A
:102D50002849FEF72EFB0E49095D491EC1EBC10152
:102D6000234A02EB810005221F49FEF711FB0521D2
:102D70001D4801F004FB0649095D491EC1EBC10174
:102D80001B4A39E062E00000004800407E0000205D
:102D9000411000200018014041540D0A00000000BD
:102DA0009B00002041542B43475245473F0D0A00EA
:102DB00041542B4349504D55583D300D0A000000F9
:102DC000E80000209D00002041542B43495053450A
:102DD0004E443D350D0A0000AF000020DA180020F7
:102DE000A70000208A000020B4000020BF000020BF
:102DF00000000708C700002002EB8101881D08229F
:102E00008A49FEF7C5FA0821884801F0B8FA8849CE
:102E1000095D491EC1EBC101864A02EB810101F146
:102E20000E0006228449FEF7B3FA0621824801F01B
:102E3000A6FA0D347E48005DFF2805D07C49601C51
:102E4000085CFF287FF44EAF012010BD641CB4F570
:102E5000167FFFF638AF0020F7E710B5002400BF5B
:102E60008AE07348005D1F287ED17149601C085CB0
:102E70003D28F9D1A01C085C02287CD1E41C12E09A
:102E80006E480078401E6D4908706949095D491E09
:102E900001EBC10101EB4101664A88181B22684918
:102EA000FEF787FA641C6248005DFF2803D0604883
:102EB000005D2428E4D15E48005DFF2801D1012097
:102EC00010BD5B48005D242855D100205B49087087
:102ED000A41C43E059480078401C584908705448E5
:102EE000015D56480078401E564A1154E2B205234F
:102EF00055494F48FFF74DFE601DC2B208234B49AC
:102F00004B48FFF746FE4A49095D491E01EBC101E6
:102F100001EB4101474A881805224B49FEF749FA5F
:102F20004349095D491E01EBC10101EB4101414AE1
:102F30001144481D08223D49FEF73BFA3C49095D12
:102F4000491E01EBC10101EB41013A4A114401F173
:102F50000D0006223849FEF72CFA0D343448005D86
:102F6000FF2806D0324900E005E0601C085CFF281D
:102F7000B0D10120A4E7641CB4F5167FFFF671AF51
:102F800000209DE710B531480078302842DC3048F9
:102F9000007841283ED12E48407854283AD12C4818
:102FA00080782B2836D12A48C078432832D1284847
:102FB000007949282ED12648407950282AD1244822
:102FC0008079532826D12248C079542822D120481C
:102FD000007A41281ED11E48407A52281AD11C4836
:102FE000807A542816D13021194801F0C8F93022CE
:102FF00017491848FEF7DDF9002404E000201449C1
:103000000855601CC4B2302CF8DB00200F49087052
:10301000012010BD0020FCE70146012002E0491C10
:10302000421CD0B20A786E2AF9D17047BF00002046
:103030004110002000000708C70000208A0000207F
:10304000CD0000208B000020B400002025010020CE
:103050001F19002000F8070808B503208DF80000AC
:1030600000208DF801008DF8020001208DF803008A
:10307000684601F01CFA08BDF0B503460C4615463B
:10308000642093FBF0F0C6B2642093FBF0F700FBE2
:103090001730C1B2132E02DD01F16400C1B208463F
:1030A000CF1701EB977701EBA707BAB2072092FB86
:1030B000F0F700FB172082B25719601EDFF850C4EA
:1030C0001CF80000384482B2CF1701EB9777BF108D
:1030D000A1EB87071FB9032C01DA501E82B207202B
:1030E00092FBF0F700FB1720C0B2F0BD0146CA17F3
:1030F00001EB92729210A1EB820292B9642091FBD3
:10310000F0F200FB121050B94FF4C87091FBF0F2CE
:1031100000FB121008B9012070470020FCE70120D5
:10312000FAE70020F8E770B500260024002503F038
:10313000B7F90646F748B6FBF0F4F7480088A04216
:103140003CD0F5490C8040F2B27510E02846FFF7FC
:10315000CDFF40B1B4F5B77F02D3A4F5B77404E056
:10316000681C85B206E0A4F26D14681C85B2B4F543
:10317000B67FEBD800BFE9488580002516E0E74917
:103180008888FFF7B3FF30B1012D04D11D2C01D386
:103190001D3C09E00CE0E248405DA04203D8E04855
:1031A000405D241A00E003E0681C85B21C2CE6D2C6
:1031B00000BF681CD9498871601CC871D548B6FB2E
:1031C000F0F100FB11644FF46160B4FBF0F0D349FF
:1031D00008704FF46160B4FBF0F100FB11403C213A
:1031E000B0FBF1F0CD4948704FF46160B4FBF0F1F1
:1031F00000FB11403C21B0FBF1F201FB1200C7497A
:1032000088700B46DA7999799888FFF735FFC349BA
:103210000872002070BD2DE9F05F06460F4690460B
:103220009946DDE90AAB002440F2B270864203DB26
:1032300040F63300864202DD0120BDE8F09F40F2F7
:10324000B2750AE02846FFF751FF10B1B5480444B3
:1032500001E0B5480444681C85B2B542F2DB781E33
:10326000C7B2002510E0AE48405D40F2A3214843BC
:1032700004EBC0143046FFF739FF18B1012D01D11E
:10328000A4480444681C85B2BD42ECDBA8F10100EF
:1032900040F2A321484304EBC014C9EB4910C0EB32
:1032A000092004EB0014CAEB0A1004EB80045C4410
:1032B00001214FF0C05001F08CFC012003F0E1F936
:1032C000204603F0F6F803F027F90020B5E72DE9D2
:1032D000FC4705460E4617469846DDE90A9A002443
:1032E00001214FF0C05001F074FC012003F0C9F936
:1032F000042003F08EF945F2500188423ED003F0DD
:1033000053F9012001F0C5FB04E0601CC4B20A209F
:1033100000F0BDFE412001F024FB08B9FA2CF4DBDB
:10332000FA2C02DB0120BDE8FC874FF4807001F02D
:10333000CCFB012001F0CFFB03F0EEF803F0F5F831
:103340000121084603F08CF803F0E6F803F095F845
:1033500047F6FF7003F0BAF803F0DEF843463A464A
:1033600031462846CDE9009AFFF755FF03F08EF865
:1033700045F25001042003F040F907E003F0D5F8CE
:103380000121084603F06CF803F0C6F8FFF764FE6D
:10339000FFF7C9FE0020C6E70EB5012003F0EAF8EA
:1033A00008B1FFF7C0FE022003F0E4F8A0B102204C
:1033B00003F0F0F8FFF7B7FE58488078574949788E
:1033C000564A1278CDE9002102905448C379827997
:1033D000818856A003F04EFA052003F0DBF803F0D5
:1033E0009BF80EBD59480078401C594908700120CF
:1033F00048704A4880880012887048488088C870A1
:103400004648807908714548C0794871434800783A
:10341000887142484078C871404880780872704787
:103420004A480078401C4A490870102048703B48C0
:1034300080880012887039488088C8703748807941
:1034400008713648C079487134480078887133482B
:103450004078C87131488078087270473B480078DE
:10346000401C3B490870012048702C48808800129D
:1034700088702A488088C870284880790871274851
:10348000C079487125480078887124484078C8710F
:1034900022488078087270472C480078401C2C49DC
:1034A0000870022048701D488088001288701B48F0
:1034B0008088C8701948807908711848C0794871A7
:1034C00016480078887115484078C871134880788C
:1034D000087270471D480078401C1D490870032081
:1034E00048700E488088001288700C488088C87028
:1034F0000A48807908710948C079487107480078FE
:10350000887106484078C87104488078087270470E
:10351000D48A00088051010018010020DA18002028
:10352000E08A00080085E2018033E101416C6172AC
:103530006D2054696D653A25642D25642D25642020
:1035400025643A25643A25640A00000063000020DF
:10355000730D002010B5044600BF80214F4801F0D4
:1035600039FD0028F9D021464C4801F0C5FC10BDBA
:1035700010B5044603E02078FFF7ECFF641C2078C8
:103580000028F8D110BD10B504462146434801F08B
:10359000B3FC00BF8021414801F01CFD0028F9D098
:1035A00010BD70B504460D46002600BF07E0207828
:1035B000FFF7E9FF012000F06AFD641C761CAE42B3
:1035C000F5DB70BD00B587B00121C80401F001FB37
:1035D0000121112001F0F0FA304801F051FB4FF4C5
:1035E0008060ADF8140003208DF8160018208DF8C7
:1035F000170005A92A4801F023F84FF40060ADF840
:10360000140004208DF8170005A9254801F018F8CA
:1036100034208DF8180003208DF819008DF81A0059
:1036200001208DF81B0006A800F041FF4FF4E130A7
:1036300001900020ADF80800ADF80A00ADF80C00CC
:10364000ADF810000C20ADF80E0001A9134801F0F0
:103650005AFB012240F22551104801F0ECFB0121F8
:103660000E4801F0DCFB07B000BD10B540F225515B
:103670000A4801F0C5FC58B1084801F041FCC1B24C
:10368000084802780078401C064B187006488154A0
:1036900040F22551014801F0DDFC10BD004C004016
:1036A000001001401A010020E4180020002000BF93
:1036B00003E00021F94A1154401C3228F9DB0021B3
:1036C000F74A1170704730B503460C46002100BF21
:1036D00006E0585C655CA84201D0002030BD491C62
:1036E0009142F6DB0120F9E710B58EB002241C22CE
:1036F000ECA107A803F03AF91C22F1A1684603F0F7
:1037000035F9FFF7D3FF1A2107A8FFF74AFF4FF457
:103710007A7000F0BCFC1A226946E048FFF7D3FF3C
:1037200004464FF47A7000F0B2FC20460EB010BD93
:1037300010B58EB002241C22E8A107A803F016F9E8
:103740001C22EDA1684603F011F9FFF7AFFF1A2123
:1037500007A8FFF726FF4FF47A7000F098FC1A22B2
:103760006946CE48FFF7AFFF044620460EB010BDB5
:1037700010B58EB002241C22E6A107A803F0F6F8CB
:103780001C22EBA1684603F0F1F8FFF78FFF1A2126
:1037900007A8FFF706FF782000F079FC1A22694697
:1037A000BE48FFF790FF044620460EB010BDF0B5AE
:1037B0008FB006460227002400251C22E3A108A89A
:1037C00003F0D4F81C22E8A101A803F0CFF8F0B26E
:1037D0008DF8280000BF03E008A8005D0544641CC4
:1037E000182CF9DBE8B28DF83800280A8DF839007A
:1037F000FFF75CFF1A2108A8FFF7D3FE4FF47A7099
:1038000000F045FC1A2201A9A448FFF75CFF074617
:1038100038460FB0F0BD10B58EB002241C22D9A1DD
:1038200007A803F0A3F81C22DDA1684603F09EF868
:10383000FFF73CFF1A2107A8FFF7B3FE4FF47A7099
:1038400000F025FC1A2269469448FFF73CFF044625
:1038500020460EB010BD10B58EB002241C22D7A198
:1038600007A803F083F81C22CDA1684603F07EF878
:10387000FFF71CFF1A2107A8FFF793FE4FF47A7099
:1038800000F005FC1A2269468448FFF71CFF044635
:1038900020460EB010BD10B58EB002241C22CEA161
:1038A00007A803F063F81C22BDA1684603F05EF888
:1038B000FFF7FCFE1A2107A8FFF773FE4FF47A709A
:1038C00000F0E5FB1A2269467448FFF7FCFE044647
:1038D00020460EB010BD10B58EB002241C22C5A12A
:1038E00007A803F043F81C22C9A1684603F03EF87C
:1038F000FFF7DCFE1A2107A8FFF753FE4FF47A709A
:1039000000F0C5FB1A2269466448FFF7DCFE044656
:1039100020460EB010BD70B50646002400250021DB
:103920000846FDF707FAFDF70DF8032000F0D6FB77
:10393000FFF7FEFE0446E0B200F005FD012C7DD14C
:103940000024FFF768FF04460CB9002070BD182161
:103950000020FDF737FBFCF7F5FF022000F0BEFB6F
:10396000FDF72FF8002400210846FDF749FBFCF77E
:10397000E9FF032000F0B2FBFFF7DAFE0446E0B2F5
:1039800000F0E1FC012C72D10024FFF764FF044633
:103990000CB90020DAE718210020FDF713FBFCF733
:1039A000D1FF022000F09AFBFDF70BF80024002164
:1039B0000846FDF725FBFCF7C5FF032000F08EFB52
:1039C000FFF7B6FE0446E0B200F0BDFC012C62D168
:1039D0000024FFF760FF04460CB90020B6E7182169
:1039E0000020FDF7EFFAFCF7ADFF022000F076FBB8
:1039F000FCF7E7FF002400210846FDF780FBFCF7F9
:103A0000A1FFFFF768FF0446E0B200F09CFC012C28
:103A100042D1002418210020FDF78FFBFCF792FF14
:103A20003046FFF7C4FE0446012C30D1022000F0DE
:103A300055FBFCF7C6FF1821002000E004E1FDF76C
:103A400067FAFCF77FFF032000F048FBFCF7B9FFA3
:103A5000FFF7E6FC0922754975480068FDF7A9FCE7
:103A6000734800680A3072490860002505E0E9E003
:103A700000206E494855681CC5B2092DF8DB6D4819
:103A80000078401C6B49087001206B490870E0B257
:103A900000F059FCDAE0D3E0D0E00000E4180020A8
:103AA0001A01002055AA00000100000000000000DB
:103AB0000000000000000000000000000001000005
:103AC000AA550100010002000000000000000000F3
:103AD00000000000000000000301000055AA0000E3
:103AE00020000000000000000000000000000000B6
:103AF000000000001F010000AA5501002000020084
:103B000000000000000000000000000000000000B5
:103B10002201000055AA0000210000000000000062
:103B20000000000000000000000000002001000074
:103B3000AA55010021000300000001000000000060
:103B400000000000000000002501000055AA000050
:103B50004000040000000000000000000000000021
:103B60000000000044010000AA55010040000200CE
:103B70000000000000000000000000000000000045
:103B80004201000055AA0000600002000000000091
:103B900000000000000000000000000061010000C3
:103BA000AA550100600002000000000000000000B3
:103BB00000000000000000006201000055AA0000A3
:103BC0006000020001000000000000000000000092
:103BD000000000006201000055AA00006000020021
:103BE00002000000000000000000000000000000D3
:103BF0006301000055AA00006100030000000300FB
:103C0000000000000000000000000000660100004D
:103C1000AA55010061000200000000000000000041
:103C200000000000000000006301000016190020E1
:103C3000640000206C0000206E000020002085E65B
:103C4000002083E6002081E600207FE620467DE616
:103C500010B58EB002241C2287A107A802F086FEB0
:103C60001C228CA1684602F081FEFFF71FFD1A217D
:103C700007A8FFF796FC4FF47A7000F008FA1A22B2
:103C800069468B48FFF71FFD04461A21884800F05B
:103C900076FB1A21684600F072FB20460EB010BD7C
:103CA0002DE9F0418EB006460F464FF00208002481
:103CB00000251C227FA107A802F058FE1C2275A136
:103CC000684602F053FEFFF7F1FC8DF824608DF892
:103CD000267000BF03E007A8005D0544641C182C93
:103CE000F9DBE8B28DF83400280A8DF835001A2186
:103CF00007A8FFF756FC4FF47A7000F0C8F91A22B3
:103D000069466B48FFF7DFFC80461A21684800F0DF
:103D100036FB1A21684600F032FB40460EB0BDE883
:103D2000F08110B588B000241C2269A101A802F01E
:103D30001DFEFFF7FDFC044614B9002008B010BDBD
:103D4000FFF769FD04460CB90020F7E7FFF7AEFC6A
:103D50001A2101A8FFF725FC4FF47A7000F097F9BB
:103D6000002453488079052800D101242046E5E746
:103D7000F0B58FB006460227002400251C225BA167
:103D800008A802F0F3FD1C225FA101A802F0EEFDDD
:103D9000F0B28DF8280000BF03E008A8005D0544DC
:103DA000641C182CF9DBE8B28DF83800280A8DF86D
:103DB0003900FFF77BFC1A2108A8FFF7F2FB4FF44C
:103DC0007A7000F064F91A2201A93948FFF77BFCE8
:103DD000074638460FB0F0BDF0B5034600201DE0A1
:103DE0000E5CF71706EB17773F1107F130050E5CF5
:103DF000F71706EB17773F11A6EB07173037FCB222
:103E0000392D01DDEE1DF5B2392C01DDE61DF4B2D0
:103E100003F810504600761C9C55401C9042DFDB96
:103E2000002603F81260F0BD2DE9F05F80460E46D3
:103E3000914600241CE016F814A06000401C16F8FF
:103E400000B0504602F007FD3038C5B2092D01DD43
:103E5000E81FC5B2584602F0FEFC3038C7B2092F41
:103E600001DDF81FC7B207EB051008F80400641C59
:103E70004C45E0DBBDE8F09F55AA0000440004007B
:103E80000100F4010000000000000000000000003C
:103E90003D020000AA55010044000200000000009D
:103EA00000000000000000000000000046010000CB
:103EB000E418002055AA0000440004000100F400AA
:103EC0000000000000000000000000003D020000B3
:103ED00055AA00006300060000000100F401000084
:103EE00000000000000000005E02000055AA000073
:103EF000460002000000000000000000000000007A
:103F00000000000044010000AA5501004600030023
:103F100000000100000000000000000000000000A0
:103F20004A01000010B50121080700F052FE0120EF
:103F300002F0B6FB02F0D3FB10BD10B500214FF428
:103F4000FE7000F053FEFFF7EDFF10BD70B50025C9
:103F500000241EE00020FEF7A4F92D490870084651
:103F60000078FF280CD0681CC5B200241E2000F089
:103F70008EF8642D0DDBFF2025490870012070BDEF
:103F8000601CC4B21E2000F082F8642C01DB00200B
:103F9000F5E7DFE710B5012002F053FCFFF7D6FF8D
:103FA00008B1FFF7CAFF10BD0EB50F21052000F0C4
:103FB0005DFC0120009000208DF8040008208DF8A1
:103FC0000500F021052000F051FC012000900020A8
:103FD0008DF804000C208DF8050001208DF80600F6
:103FE000684602F0B7FB06208DF8080002208DF825
:103FF00009008DF80A0001208DF80B0002A800F0DE
:1040000056FAFFF7A3FF08B9FFF78CFF0EBD0000BB
:104010008000002010B56FF0040000F092FA3648DE
:1040200000683649B0FBF1F0354908700846007861
:1040300000EB4001C1EBC0104FF6FF7101EAC00078
:104040003049088010BD01462D4A12784A434FF08E
:10405000E0235A6100229A611A46126942F0010275
:104060001A6100BF4FF0E022106900F001021AB19E
:1040700000F48032002AF5D04FF0E022126922F0DD
:1040800001024FF0E0231A6100229A61704770B577
:104090000546FFF7BFFF1B48008868434FF0E0214B
:1040A0004861002088610846006940F0010008610D
:1040B00000BF4FF0E020046904F0010018B104F4DF
:1040C00080300028F5D04FF0E020006920F001009A
:1040D0004FF0E02108610020886170BD70B5044692
:1040E000002505E04FF47A70FFF7D1FF681C85B218
:1040F000A542F7DB70BD00004000002000127A00EE
:104100001C0100201E010020014600BF704700BFB7
:10411000CB4A128802F04002002AF9D0C2B2C84B42
:104120001B1D1A80704710B588B004460121042079
:1041300000F042FD0121880300F03EFD4FF4806055
:10414000ADF8040004208DF8070001A9BD4800F077
:1041500077FA4FF40070ADF8040003208DF80600E4
:1041600018208DF8070001A9B64800F069FA002070
:10417000ADF80800ADF80A004FF40070ADF80C007F
:104180000020ADF80E0002A9AD4800F031FE049405
:104190000020ADF81400ADF81600ADF81800ADF829
:1041A0001C000C20ADF81A0004A9A54800F0ABFDD6
:1041B00025208DF8000003208DF8010002208DF8E5
:1041C000020001208DF80300684600F070F901221A
:1041D00040F225519A4800F02EFE0121984800F047
:1041E0001EFE08B010BD10B588B0044601210420A1
:1041F00000F0E2FC0121480400F0EBFC0820ADF8DF
:10420000040004208DF8070001A98E4800F018FA78
:104210000420ADF8040003208DF8060018208DF866
:10422000070001A9874800F00BFA0020ADF808004C
:10423000ADF80A004FF40070ADF80C000020ADF8A6
:104240000E0002A9804800F0D3FD04940020ADF8D0
:104250001400ADF81600ADF81800ADF81C000C20E5
:10426000ADF81A0004A9784800F04DFD26208DF81D
:10427000000000208DF8010002208DF802000120CE
:104280008DF80300684600F012F9012240F2255132
:104290006D4800F0D0FD01216B4800F0C0FD41F6F3
:1042A0001F416320FEF76CFA002068490880002156
:1042B000674801F0F7FD08B010BD10B540F2255178
:1042C000614800F09DFE58B15F4800F019FEC1B290
:1042D000604802780078401C5E4B18705E4881543C
:1042E00040F22551584800F0B5FE10BD70B50446A7
:1042F00000250FE0615D524800F0FEFD3220FFF71F
:10430000C6FE00BF80214E4800F064FE0028F9D0B0
:10431000681CC5B2605D0028ECD170BD70B5044664
:1043200000250CE0615D484800F0E6FD00BF8021FB
:10433000454800F04FFE0028F9D0681CC5B2605D0A
:104340000028EFD170BD10B5044621463C4800F06E
:10435000D3FD00BF80213A4800F03CFE0028F9D090
:1043600010BD10B504462146374800F0C5FD00BF1A
:104370008021354800F02EFE0028F9D010BD70B520
:1043800005460E4600240FE000BF40212C4800F0F7
:1043900021FE0028F9D0295D294800F0ADFD0A2052
:1043A000FFF775FE601CC4B2B442EDDB00BF4021D4
:1043B000234800F00FFE0028F9D070BD70B5054607
:1043C0000E4600240CE000BF40211F4800F002FE12
:1043D0000028F9D0295D1C4800F08EFD601CC4B295
:1043E000B442F0DB00BF4021174800F0F3FD002885
:1043F000F9D070BD10B5002440F22551104800F0EE
:10440000FFFDB0B10E4800F07BFDC4B21348007848
:1044100030B9FF2C00D01CB900201049087008E00A
:104420000F480E49097844540C480078401C0B4949
:10443000087040F22551024800F00CFE10BD00004B
:1044400000380140000801400044004028010020DD
:104450000014004024010020E7190020250100205D
:104460001F1900200948804709480047FEE7FEE77A
:10447000FEE7FEE7FEE7FEE7FEE7FEE7FEE7FEE714
:1044800004480549054A064B704700008F0700089D
:1044900031010008681D002068230020681F0020EB
:1044A000681F002031490143314A1160704770B5DF
:1044B000002100230F22C47804B32D4C246804F497
:1044C000E064C4F5E064210AC1F10403CA40447801
:1044D00004FA03F18478144021430901254C06783D
:1044E000A155047804F01F050124AC4005786D1136
:1044F000AD0005F1E025C5F8004109E0047804F0BD
:104500001F050124AC401C4D0678761145F8264065
:1045100070BD1A4A0A400243154B1B1F1A607047B0
:1045200039B1134A121D12680243114B1B1D1A6048
:1045300006E00F4A121D126882430D4B1B1D1A60C4
:104540007047042808D14FF0E021096941F00401C7
:104550004FF0E022116107E04FF0E021096921F0FE
:1045600004014FF0E0221161704700000000FA05DD
:104570000CED00E000E400E080E100E080FFFF1FC0
:1045800010B50446CC48844208D10121042000F033
:104590002DFB0021042000F029FB46E0C74884429F
:1045A00008D10121082000F021FB0021082000F0A3
:1045B0001DFB3AE0C248844208D10121102000F0DE
:1045C00015FB0021102000F011FB2EE0BD488442B5
:1045D00008D10121202000F009FB0021202000F05B
:1045E00005FB22E0B848844208D10121402000F0B8
:1045F000FDFA0021402000F0F9FA16E0B3488442A9
:1046000008D10121802000F0F1FA0021802000F083
:10461000EDFA0AE0AE48844207D10121801500F08E
:10462000E5FA0021A01500F0E1FA10BD10B5012156
:10463000084600F0DBFA0021012000F0D7FA10BD97
:104640002DE9F04102460025002600200023002429
:10465000002791F803C00CF00F0591F803C00CF08F
:10466000100CBCF1000F03D091F802C04CEA050514
:1046700091F800C0BCF1000F31D0146800202BE08D
:104680004FF0010C0CFA00F3B1F800C00CEA03067D
:104690009E4220D183004FF00F0C0CFA03F7BC436D
:1046A00005FA03FC4CEA040491F803C0BCF1280F9E
:1046B00006D14FF0010C0CFA00FCC2F814C00AE05D
:1046C00091F803C0BCF1480F05D14FF0010C0CFA72
:1046D00000FCC2F810C0401C0828D1D31460B1F807
:1046E00000C0BCF1FF0F34DD546800202EE000F163
:1046F000080C4FF0010808FA0CF3B1F800C00CEAFE
:1047000003069E4221D183004FF00F0C0CFA03F7F1
:10471000BC4305FA03FC4CEA040491F803C0BCF165
:10472000280F05D100F1080C08FA0CF8C2F8148023
:1047300091F803C0BCF1480F07D100F1080C4FF00D
:10474000010808FA0CF8C2F81080401C0828CED3E3
:104750005460BDE8F0814FF6FF7101800221817045
:104760000421C17070470246002093680B400BB1D2
:10477000012000E0002070470146886880B2704741
:1047800002460020D3680B400BB1012000E000205E
:1047900070470146C86880B2704701617047416147
:1047A00070470AB1016100E041617047C160704724
:1047B0004FF480320A438261816182618269826939
:1047C000704702460020434B18684FF6807318402C
:1047D00040EA021008433F4B186070473E49C861E9
:1047E0007047F0B50A46002300240021002500F0A0
:1047F0000046B6F1004F02D1364EF16901E0354E68
:104800007168C0F3034583B200F44016B6F5401F4B
:1048100008D121F070612F4E766826F070662D4F1A
:104820007E6012E000F48016B6F5801F06D10326E4
:1048300006FA05F4A14341F0706106E0460D360129
:1048400003FA06F6B14341F0706122B1460D36011C
:1048500003FA06F6314300F00046B6F1004F02D1EC
:104860001C4EF16101E01B4E7160F0BD30B50022BD
:104870008B071C0F0F2303FA04F2164B08338C101E
:1048800053F824309343134C08348D1044F82530EA
:1048900023468C1053F824308C07240F00FA04F4BC
:1048A00023430C4C08348D1044F8253030BD0A49A0
:1048B000DC3108607047000000080140000C014036
:1048C000001001400014014000180140001C01408C
:1048D000002001400000014000002042DF48006845
:1048E00040F00100DD49086008464068DC490840A6
:1048F000DA49486008460068DA490840D749086044
:104900000846006820F4802008600846406820F4CB
:10491000FE0048604FF41F0088607047CF49096867
:1049200021F48031CD4A11601146096821F48021BB
:104930001160B0F5803F03D0B0F5802F0ED106E0B6
:10494000C649096841F48031C44A116007E0C3498F
:10495000096841F4A021C14A116000E000BF00BF16
:10496000704710B501460022002300204A11012A99
:1049700002D1BA4C236806E0022A02D1B74C236A5E
:1049800001E0B64C636A01F01F02012494401C4010
:104990000CB1012000E0002010BD38B500200090CF
:1049A0000024002500BF3120FFF7DBFF05460098FB
:1049B000401C00900098B0F5A06F01D0002DF2D0FF
:1049C0003120FFF7CEFF08B1012400E0002420468B
:1049D00038BD01460020A14A106820F0F80040EAE6
:1049E000C10010607047A04908607047024600206F
:1049F0009A4B586820F47C1042EA01031843974B05
:104A00005860704798490866704701460020934AED
:104A1000506820F003000843506070478F4840689A
:104A200000F00C007047014600208C4A506820F0CE
:104A3000F00008435060704701460020874A5068E4
:104A400020F4E06008435060704701460020834A2C
:104A5000506820F4605040EAC1005060704729B1AE
:104A60007E4A527A02437D4B5A7204E07B4A527A64
:104A700082437A4B5A7270477B49D831086070473D
:104A800001460020754A506820F4404008435060B9
:104A900070470021714A20321170704A82F820104C
:104AA000012802D004280AD104E001216B4A2032F7
:104AB000117005E00521694A2032117000E000BF45
:104AC00000BF70476949086070476449096A01433B
:104AD000624A11627047654944390860704730B5D1
:104AE00000210022002400235C4D6D6805F00C01BC
:104AF00021B1042905D0082923D105E05C4D0560CA
:104B000022E05B4D05601FE0544D6D6805F47012A6
:104B1000524D6D6805F48034022505EB92421CB9B4
:104B2000544D554305600BE04C4D6D6805F4003560
:104B30001DB1504D5543056002E04D4D5543056094
:104B400002E04B4D056000BF00BF444D6D6805F0AD
:104B5000F0010909484D6B5C0568DD4045603F4D3B
:104B60006D6805F4E061090A434D6B5C4568DD4002
:104B700085603A4D6D6805F46051C90A3E4D6B5C25
:104B80004568DD40C560354D6D6805F44041890BD1
:104B90003A4D6B5CC568B5FBF3F5056130BD29B1D5
:104BA0002E4A526902432D4B5A6104E02B4A526946
:104BB00082432A4B5A61704729B1284A92690243BD
:104BC000264B9A6104E0254A92698243234B9A61FD
:104BD000704729B1214AD2690243204BDA6104E0CF
:104BE0001E4AD26982431D4BDA61704729B11B4AC4
:104BF000D2680243194BDA6004E0184AD268824353
:104C0000164BDA60704729B1144A12690243134BFC
:104C10001A6104E0114A12698243104B1A6170470D
:104C200012494039086070470F49C86470470B4902
:104C3000C87170470948406A40F08070074948626F
:104C4000704701460020054A92680A400AB10120D7
:104C500000E0002070470149887270470010024050
:104C60000000FFF8FFFFF6FE0000424280044242CF
:104C700000127A0000093D002A0100203A010020BC
:104C800010B50446FB48844209D101218803FFF78F
:104C9000ADFF00214FF48040FFF7A8FF32E0F64857
:104CA000844209D101214804FFF7ADFF00214FF4F0
:104CB0000030FFF7A8FF25E0F048844209D1012128
:104CC0008804FFF7A0FF00214FF48020FFF79BFF2F
:104CD00018E0EB48844209D10121C804FFF793FF93
:104CE00000214FF40020FFF78EFF0BE0E5488442DF
:104CF00008D101210805FFF786FF00214FF480103D
:104D0000FFF781FF10BD2DE9F04786B005460E463E
:104D10000024A24600BFA1460027B08900B100BF11
:104D20002F462C8A4CF6FF700440F08804432C82F6
:104D3000AC894EF6F3100440B0883189084371897C
:104D400008430443AC81AC8A4FF6FF400440B0896D
:104D50000443AC8201A8FFF7C2FEC648874202D1D5
:104D6000DDF810A001E0DDF80CA0A88900F40040F7
:104D700040B10AEBCA0000EB0A1031684900B0FBF1
:104D8000F1F807E00AEBCA0000EB0A10316889006D
:104D9000B0FBF1F86420B8FBF0F0040120096421B5
:104DA00001FB1089A88900F4004040B1322000EBDB
:104DB000C900B0FBF1F000F00700044308E0322026
:104DC00000EB09106421B0FBF1F000F00F00044388
:104DD0002C8106B0BDE8F0874FF416510160002128
:104DE0008180C18001810C21418100218181704736
:104DF00010B502460020108A4FF2FF0318400B88BE
:104E00004C8823438C882343CC8823431843108247
:104E100010BD0021018041808180C180704721B197
:104E2000828942F40052828104E082894DF6FF7348
:104E30001A4082817047F0B5034600240026002501
:104E4000002040F66A17B94200D100BF1846C1F3EE
:104E5000421401F01F06012707FA06F5012C01D1C3
:104E60000C3004E0022C01D1103000E014301AB1F3
:104E700007682F43076002E00768AF430760F0BD93
:104E80001AB1838A0B43838202E0838A8B43838235
:104E90007047028A4FF6F0731A400282028A0A4370
:104EA0000282704782894FF2FF731A4082818289A1
:104EB0000A438281704721B1828942F002028281D5
:104EC00004E082894FF6FD731A4082817047028A9E
:104ED0004FF6DF731A400282028A0A430282704749
:104EE00021B1028A42F48042028204E0028A4BF637
:104EF000FF731A4002827047C1F308028280704734
:104F000001468888C0F308007047818941F001019B
:104F100081817047028BD2B20283028B42EA012266
:104F200002837047028B02F47F420283028B0A43A2
:104F30000283704721B1828A42F02002828204E01B
:104F4000828A4FF6DF731A408282704721B1828ACB
:104F500042F01002828204E0828A4FF6EF731A4018
:104F60008282704721B1828A42F00802828204E084
:104F7000828A4FF6F7731A408282704721B1828984
:104F800042F40042828103E08289C2F30E028281F0
:104F9000704721B1828A42F40062828204E0828AF0
:104FA0004FF2FF731A4082827047828A4FF6FB737A
:104FB0001A408282828A0A438282704721B1828AA1
:104FC00042F00202828204E0828A4FF6FD731A40A8
:104FD0008282704702460020B1F5007F00D100BFF9
:104FE00013880B400BB1012000E00020704701F452
:104FF0000072B2F5007F00D100BFCA430280704743
:1050000070B50246002400230025002040F66A16F1
:10501000B14200D100BFC1F3421501F01F030126C8
:1050200006FA03F3012D02D19689334006E0022DE2
:1050300002D1168A334001E0968A33400C120126D1
:1050400006FA04F41688344013B10CB1012000E0D4
:10505000002070BD10B50022002340F66A14A14262
:1050600000D100BF0A1201249440A3B2DC430480A3
:1050700010BD0000003801400044004000480040DE
:10508000004C00400050004001460020FE4A1068DD
:1050900000F03800084310607047FB49096821F0B0
:1050A0000801F94A1160114609680143116070470F
:1050B000F549096821F01001F34A116011460968A9
:1050C000014311607047F148EF494860F04848607B
:1050D0007047EE48EC494860ED4848607047EA4840
:1050E000006940F08000E84908617047E6480069BF
:1050F00040F08000E449086170470420E249C96833
:1051000001F0010109B101200EE0DF49C96801F099
:10511000040109B1022007E0DB49C96801F0100170
:1051200009B1032000E00420704700B502460423C3
:10513000FFF7E3FF034603E0FFF7DFFF0346521EDE
:10514000012B01D1002AF7D102B90523184600BD71
:1051500030B5044604254FF43020FFF7E6FF05463E
:10516000042D17D1C848006940F00200C649086103
:1051700008464461006940F0400008614FF4302067
:10518000FFF7D3FF0546C048006941F6FD710840AE
:10519000BD490861284630BD10B504244FF43020C5
:1051A000FFF7C3FF0446042C16D1B748006940F04E
:1051B0000400B54908610846006940F040000861F4
:1051C0004FF43020FFF7B1FF0446AF48006941F6C5
:1051D000FB710840AC490861204610BD00B502468D
:1051E0000423FFF78AFF034603E0FFF786FF034629
:1051F000521E012B01D1002AF7D102B9052318460E
:1052000000BD10B504244FF43020FFF7E7FF04463B
:10521000042C16D19C48006940F004009A490861AA
:105220000846006940F0400008614FF43020FFF765
:10523000D5FF04469448006941F6FB710840924945
:105240000861204610BD00208F49C96901F00201A4
:1052500009B1012000E00020704730B5A5250424E5
:10526000FFF7F1FF00B100254FF43020FFF75DFF9D
:105270000446042C3AD18548834988608448886074
:105280000846006940F0200008610846006940F0C7
:10529000400008614FF43020FFF747FF0446042C1C
:1052A0001BD17948006941F6DF71084076490861F1
:1052B0000846006940F01000086176480580E00269
:1052C000FFF733FF0446052C10D06F48006941F604
:1052D000EF7108406C49086108E0052C06D06A4867
:1052E000006941F6EF71084067490861204630BD0A
:1052F00078B506460C46042500200090E802FFF72A
:1053000014FF0546042D24D15F48006940F00100D8
:105310005D4908613480E802FFF707FF0546042D68
:1053200010D1B01C0090200C00990880E802FFF713
:10533000FCFE05465448006941F6FE71084052499A
:10534000086106E05048006941F6FE7108404E4988
:105350000861284678BD70B504460D460426F00263
:10536000FFF7E3FE0646042E11D14748006940F0DE
:105370000100454908612580F002FFF7D6FE064688
:105380004148006941F6FE7108403F4908613046D6
:1053900070BD70B505460E460424E002FFF7C5FE59
:1053A0000446042C17D1394837498860384888604A
:1053B0000846006940F0100008612E80E002FFF707
:1053C000B4FE0446052C06D02F48006941F6EF7163
:1053D00008402D490861204670BD2DE9F043044680
:1053E0004FF6FF763746B046B1460425E443E6B2B1
:1053F000C4F30727C4F307484FEA1469E802FFF72C
:1054000094FE0546042D49D120481F498860204854
:1054100088600846006940F010000861FF2E06D041
:105420001C4808300680E802FFF77FFE0546042D81
:1054300008D1FF2F06D017480A300780E802FFF78F
:1054400074FE0546042D0AD1B8F1FF0F07D01148AC
:105450000C30A0F80080E802FFF767FE0546042D37
:105460000AD1B9F1FF0F07D00A480E30A0F800901A
:10547000E802FFF75AFE0546052D0FD002480069E5
:1054800041F6EF71084007E0002002402301674524
:10549000AB89EFCD00F8FF1F664908612846BDE8DB
:1054A000F08330B5054604244FF43020FFF73DFE6D
:1054B0000446042C41D160485E4988605F4888609A
:1054C0000846006940F0200008610846006940F085
:1054D000400008614FF43020FFF727FE0446042CFB
:1054E00022D15448006941F6DF71084051490861F2
:1054F0000846006940F0100008611DB100205049C5
:10550000088002E0A5204E4908804FF43020FFF7C4
:105510000CFE0446052C10D04648006941F6EF7198
:1055200008404449086108E0052C06D0414800695C
:1055300041F6DF7108403F490861204630BDF0B5B3
:1055400005460E46174604243B483A4988603B48C6
:105550008860E002FFF7E9FD0446042C19D13548C4
:10556000006940F010003349086147F0F80030430B
:1055700028433349891C0880E002FFF7D6FD044622
:10558000052C06D02B48006941F6EF7108402949E7
:1055900008612046F0BD2748C0698008704725484B
:1055A000006A704700202349096801F0200109B111
:1055B000012000E00020704729B11E4A1269024311
:1055C0001C4B1A6104E01B4A12698243194B1A6191
:1055D000704701460020012908D1164AD26902F01D
:1055E00001020AB1012008E0002006E0114AD26859
:1055F0000A400AB1012000E0002070470D49C86050
:10560000704704200B49C96801F0010109B101206C
:105610000EE00849C96801F0040109B1022007E061
:105620000449C96801F0100109B1032000E0042019
:10563000704700000020024023016745AB89EFCD91
:1056400000F8FF1F10B50446FE48844208D101212E
:10565000C014FFF7CBFA0021E014FFF7C7FAC4E04B
:10566000B4F1804F08D101210846FFF7CCFA0021A0
:105670000120FFF7C8FAB8E0F348844208D10121BD
:105680000220FFF7C0FA00210220FFF7BCFAACE0CD
:10569000EE48844208D101210420FFF7B4FA00212A
:1056A0000420FFF7B0FAA0E0E948844208D10121C4
:1056B0000820FFF7A8FA00210820FFF7A4FA94E0D9
:1056C000E448844208D101211020FFF79CFA002110
:1056D0001020FFF798FA88E0DF48844208D10121C2
:1056E0002020FFF790FA00212020FFF78CFA7CE0C1
:1056F000DA48844208D101214014FFF777FA0021EB
:105700006014FFF773FA70E0D548844209D1012193
:10571000C804FFF76BFA00214FF40020FFF766FA88
:1057200063E0D048844209D101210805FFF75EFA01
:1057300000214FF48010FFF759FA56E0CA4884421E
:1057400009D101214805FFF751FA00214FF400105B
:10575000FFF74CFA49E0C548844208D101214020B6
:10576000FFF751FA00214020FFF74DFA3DE0C04815
:10577000844208D101218020FFF745FA00218020D2
:10578000FFF741FA31E0BB48844208D1012180157E
:10579000FFF739FA0021A015FFF735FA25E0B648E2
:1057A000844209D101210804FFF720FA00214FF4B7
:1057B0008030FFF71BFA18E0B048844209D101217C
:1057C0004804FFF713FA00214FF40030FFF70EFAF8
:1057D0000BE0AB48844208D101218804FFF706FAA8
:1057E00000214FF48020FFF701FA10BD002202884B
:1057F000944B98420ED0994B98420BD0B0F1804F09
:1058000008D0914B984205D0904B984202D0904BD3
:10581000984204D14FF68F731A404B881A438D4B30
:10582000984207D08C4B984204D04FF6FF431A4061
:10583000CB881A4302808B8883850B880385814B34
:1058400098420BD0854B984208D08B4B984205D09C
:105850008A4B984202D08A4B984201D10B7A038638
:1058600001238382704770B5002400220023058C39
:105870004FF6FE7635400584028C8388048B4FF604
:105880008F752C40B51E2C400D882C43751E2A4068
:105890000D892A434D882A436A4DA8420BD06F4D8B
:1058A000A84208D0744DA84205D0744DA84202D039
:1058B000734DA84213D14FF6F7752A404D892A43FC
:1058C0004FF6FB752A408D882A434FF6FF652B4023
:1058D0004FF6FF552B408D892B43CD892B43838079
:1058E0000483CD888586028470BD70B500240022B3
:1058F0000023058C4FF6EF7635400584028C8388B3
:10590000048B48F6FF752C404FF6FF452C400D8860
:105910004FF6FF7606EA05252C434FF6DF752A4041
:105920000D8906EA05152A434D8806EA05152A431E
:10593000444DA84202D0494DA8421DD14FF67F7573
:105940002A404D894FF6FF7606EA05152A434FF6A1
:10595000BF752A408D8806EA05152A434FF6FF35A4
:105960002B404FF2FF752B408D8906EA85052B43AE
:10597000CD8906EA85052B4383800483CD8805877E
:10598000028470BD70B5002400220023058C4FF600
:10599000FF6635400584028C8388848B4FF68F75B3
:1059A0002C404FF6FC752C400D882C434FF6FF55CC
:1059B0002A400D894FF6FF7606EA05252A434D88D1
:1059C00006EA05252A431F4DA84202D0234DA842CE
:1059D0001DD14FF2FF752A404D894FF6FF7606EA3A
:1059E00005252A434FF6FF352A408D8806EA05250E
:1059F0002A434EF6FF752B404DF6FF752B408D89DF
:105A000006EA05152B43CD8906EA05152B4383804D
:105A10008483CD888587028470BD70B50022002301
:105A20000024058C4EF6FF7635400584038C84886F
:105A3000828B48F6FF752A404FF6FF452A400D88B5
:105A400020E00000002C014000040040000800405D
:105A5000000C0040001000400014004000340140E1
:105A6000004C01400050014000540140001800402B
:105A7000001C004000200040004001400044014064
:105A8000004801404FF6FF7606EA05252A434DF609
:105A9000FF752B400D8906EA05352B434D8806EA34
:105AA00005352B43FA4DA84202D0FA4DA84208D141
:105AB0004BF6FF752C408D894FF6FF7606EA85156B
:105AC0002C4384808283CD88A0F84050038470BD2D
:105AD000828B4FF2FF331A408283828B4FF6FF7323
